:020000040000FA
:0400000006EF00F017
:1000080004EF04F00000A69CA68EFF0EF66EF76EB5
:10001800F86A0800F528D8B405D07E9A84B09BD039
:1000280082BA99D0700ED3127E6A7F6A896A926A00
:100038008A6A936A400E8B6EA50E946E8C6A956AD6
:100048008D6A0F0E966E850ED56ED76AD66AAC8409
:10005800190EAF6EAB8EAC8AAB8868D8AE50040A66
:10006800D8B40AD0010AD8B409D0170AD8B424D011
:10007800050AD8B436D0F1D7FF00FFD7F66AF76A79
:10008800010EF86E400EF65E000EF75AF85AF7CFDA
:100098008CFF5AD8A684A688550EA76EAA0EA76EFE
:1000A800A682A694080EF718F610D8A4EBD78C6A87
:1000B80047D8110EAD6ED1D7F66AF76AF86AF7CF4E
:1000C8008CFF08003DD8F5CFADFFF5CF89FF010EB5
:1000D800F626000EF722F822F8A0F1D78C6A896A72
:1000E800BCD7F66A080EF76EF86AF7CF8CFF1ED8F1
:1000F800AECFF5FF0C00F5CF89FFF6503F0B3F0A56
:10010800D8A40AD0A684550EA76EAA0EA76EA682FA
:10011800A69416D8110EAD6E010EF626000EF72223
:10012800F822F8A0E2D78C6A896A97D7ABA204D0E4
:10013800AB98AB88AE50AE509EBA120005D8FCD72B
:10014800ACB2120001D8FCD7D650D7AE02D08B8201
:0A01580012008B92120000EF04F079
:04080000C0EF1AF03B
:100808005B82D9CF37F0DACF38F000C2D9FF01C206
:10081800DAFFAECFDFFF22EE00F0DE2A000EDD2287
:1008280022EE00F0040EDE180AE1030EDE18D8A44A
:1008380006D0040EE8CF00F2020EE8CF01F238C06D
:10084800DAFF37C0D9FF5B92110036EC2CF00009B3
:10085800D8B412009BD0FE0E086EF50E096EAA0ED3
:10086800066E440E076E1200540E086EF30E096EE3
:10087800AA0E066E440E076E1200900E086EF50E54
:10088800096EB00E066E4D0E076E1200A70E086EAA
:10089800F50E096E780E066E4D0E076E1200000EEC
:1008A800236ED10E086EF50E096E400E066E4D0EC3
:1008B800076E1200780E086EF50E096E6A0E066E47
:1008C800440E076E1200240E086EF50E096E2A0EED
:1008D800066E440E076E12008B82FB0E086EF70E32
:1008E800096E220E066E4A0E076E120003C023F030
:1008F800000E246EB70E086EF40E096EE60E066E34
:10090800490E076E1200E40E086EF40E096EAA0E68
:10091800066E490E076E12005D0E086EF50E096E22
:10092800080E066E4D0E076E1200E30E086EF70EE7
:10093800096E6E0E066E490E076E1200BD0E086E29
:10094800F50E096EEA0E066E430E076E12008B82D4
:10095800A8EC18F08B92DC0E086EF70E096EEA0E02
:10096800066E430E076E1200040E086EF50E096E31
:10097800320E066E490E076E1200E9EC2BF0F50EEA
:10098800086EF50EEBD7070EAD6E12004DEC25F094
:100998000001A06FA16BA151000AD8A4F4D7A051FF
:1009A8000D0AD8B458D7320AD8B45ED77E0AD8B45C
:1009B80064D7030AD8B46AD7060AD8B470D7010A2C
:1009C800D8B478D7030AD8B47ED7010AD8B484D764
:1009D8000E0AD8B48BD7050AD8B495D71C0AD8B450
:1009E8009BD7010AD8B4A1D7030AD8B4A7D7010A5C
:1009F800D8B4ADD7050AD8B4B7D70C0AD8B4BDD780
:100A08003B0AD8B43AD7030AD8B440D7060AD8B4B0
:100A180046D7010AD8B44ED7030AD8B454D7010A26
:100A2800D8B45AD70E0AD8B461D7050AD8B46BD748
:100A38001C0AD8B471D7010AD8B477D7030AD8B436
:100A48007DD7010AD8B483D7050AD8B48DD70C0A44
:100A5800D8B493D798D713BA0FD003C08CFF000E21
:100A68000324D96EDA6A010EDA22DF50896E540E39
:100A7800576E0D0E586E120013A009D0000E896E25
:100A8800E9EC2BF0200E576E580E586E120013A684
:100A98002FD0000E896E000E4B6E000E4A6E4B046E
:100AA800D8B0EED74AC045F04BC046F0050E476EA9
:100AB800D89046324532472EFBD7800E486EFF0E3F
:100AC800496E452A03D0D89049324832452EFBD783
:100AD80048508C6E010EFEEC2CF0000E4A24D96EA4
:100AE800010E4B20DA6E000EDF6E4A4A4B2AD7D72A
:100AF80013A810D0000E896E89CF8CFF8B82AEECC4
:100B08002CF01E0E596E420E5A6E100E576E5A0E6B
:100B1800586E120013A411D0000E896E89CF8CFF75
:100B2800010E2F6EF4EC2CF0900E596E590E5A6E81
:100B3800920E576E580E586E120012AE08D0800EE4
:100B4800896E000E3A6E070ED8EC13F099D712ACE6
:100B580008D0400E896E000E3A6E060ED8EC13F0DF
:100B68008FD712AA08D0200E896E000E3A6E050E95
:100B7800D8EC13F085D712A808D0100E896E000E95
:100B88003A6E040ED8EC13F07BD712A608D0080EE4
:100B9800896E000E3A6E030ED8EC13F071D712A4CA
:100BA80008D0040E896E000E3A6E020ED8EC13F0CF
:100BB80067D712A208D0020E896E000E3A6E010E97
:100BC800D8EC13F05DD712A008D0010E896E000E84
:100BD8003A6E000ED8EC13F053D72D2A320E2D188A
:100BE800D8A41200460E2C24F66EF76AF30EF722EC
:100BF800F86A000EF8220800F5CF89FF2C2A0E0E9D
:100C08002C18D8A402D0000E2C6E000E2D6E1200E7
:100C180036EC2CF00009D8B412004DEC25F0486EE3
:100C280048C03FF0406AA2EC20F03F50486E50D0D8
:100C380048C0ADFF000E2324D96EDA6A010EDA220D
:100C48000101DF500F0B476E000E2324D96EDA6ABC
:100C5800010EDA22473ADF5047180F0B4718DF6EAC
:100C680048C047F0D00E4726000E2324D96EDA6A12
:100C7800010EDA22DF504718F00B4718DF6E232ADF
:100C8800DF0E086EF50E096E600E066E4C0E076ECE
:100C9800120048C0ADFF000E2324D96EDA6A010E97
:100CA800DA220101DF500F0B476E000E2324D96EA4
:100CB800DA6A010EDA22473ADF5047180F0B471855
:100CC800DF6E48C047F0C90ECED7070EAD6E1200D2
:100CD80048C03FF0406AA2EC20F04050000AD8A477
:100CE800F4D73F500D0AD8B4CAD73D0AD8B4A0D714
:100CF800010AD8B49DD7030AD8B49AD7010AD8B440
:100D080097D7070AD8B494D7010AD8B491D7030A59
:100D1800D8B48ED7010AD8B48BD70F0AD8B488D7DD
:100D2800010AD8B485D7780AD8B4B3D7030AD8B497
:100D3800B0D7010AD8B4ADD7070AD8B4AAD7010AE0
:100D4800D8B4A7D7030AD8B4A4D7BFD712AE0AD04D
:100D5800897E000E116E000E106E8A0E576E540EAC
:100D6800586E120012AC06D0897C220E576E5A0EAD
:100D7800586E120012AA06D0897A220E576E5A0EA1
:100D8800586E120012A806D08978220E576E5A0E95
:100D9800586E120012A606D08976220E576E5A0E89
:100DA800586E120012A406D08974220E576E5A0E7D
:100DB800586E120012A206D08972220E576E5A0E71
:100DC800586E120012A00AD08970000E116E000E23
:100DD800106EDE0E576E4F0E586E120013A211D011
:100DE80089CF03F003C08CFF000E0324D96EDA6AA2
:100DF800010EDA22DF50896E220E576E5A0E586E97
:100E0800120013A414D0000E0324D96EDA6A010E5E
:100E1800DA2289CFDFFF032A000E0324D96EDA6AAB
:100E2800010EDA22DF50896E03C08CFFE5D713A6C6
:100E380002D00306F1D713B8EED713AA0BD0000ED1
:100E48008C6E000E2C6E2CC02DF05E0E576E0A0EA6
:100E5800586E120013AC0BD0000E8C6E000E2C6E68
:100E68002CC02DF08A0E576E0E0E586E120013A06D
:100E780012007DEC2DF08B821E0E576E4F0E586EB1
:100E8800120013BC0FD003C08CFF000E0324D96ED0
:100E9800DA6A010EDA22DF50896E540E576E0D0E93
:100EA800586E120013A810D0000E896E89CF8CFFDF
:100EB8008B82A1EC2CF0D60E596E4A0E5A6EFA0EA1
:100EC800576E570E586E120012AE0CD0800E896EF7
:100ED800000E3A6E070E5BEC0EF0200E576E580EA1
:100EE800586E120012AC08D0400E896E000E3A6E91
:100EF800060E5BEC0EF0F1D712AA08D0200E896E10
:100F0800000E3A6E050E5BEC0EF0E7D712A808D07B
:100F1800100E896E000E3A6E040E5BEC0EF0DDD7F3
:100F280012A608D0080E896E000E3A6E030E5BEC0E
:100F38000EF0D3D712A408D0040E896E000E3A6EB4
:100F4800020E5BEC0EF0C9D712A208D0020E896E11
:100F5800000E3A6E010E5BEC0EF0BFD712A008D05F
:100F6800010E896E000E3A6E000E5BEC0EF0B5D7DE
:100F78002D2A320E2D18D8A41200460E2C24F66EF7
:100F8800F76AF30EF722F86A000EF8220800F5CF88
:100F980089FF2C2A0E0E2C18D8A402D0000E2C6E15
:100FA800000E2D6E120036EC2CF00009D8B4120099
:100FB8004DEC25F0496E49C03FF0406AA2EC20F0A4
:100FC8003F50496E46D049C0ADFF03500F0B476EE6
:100FD800473A035047180F0B4718036E49C047F0AC
:100FE800D00E472603504718F00B4718036EFE0E25
:100FF800086EF50E096EAA0E066E440E076E1200F4
:1010080049C0ADFF03500F0B476E473A03504718CE
:101018000F0B4718036E49C047F0C90E4726035007
:101028004718F00B4718036EFE0E086EF50E096E92
:10103800AA0E066E440E076E1200FE0E086EF50E1E
:10104800096EAA0E066E440E076E1200070EAD6EEC
:1010580012004950476E486A4850000AD8A4F6D78B
:1010680047500D0AD8B4E9D73D0AD8B4ACD7010A1D
:10107800D8B4A9D7030AD8B4A6D7010AD8B4A3D735
:10108800070AD8B4A0D7010AD8B49DD7030AD8B4A0
:101098009AD7010AD8B497D70F0AD8B494D7010AB7
:1010A800D8B491D7780AD8B4ABD7030AD8B4A8D79C
:1010B800010AD8B4A5D7070AD8B4A2D7010AD8B468
:1010C8009FD7030AD8B49CD7C1D736EC2CF00009B7
:1010D800D8B412004DEC25F0496E49C03FF0406A83
:1010E800A2EC20F03F50496E46D049C0ADFF2050D9
:1010F8000F0B476E473A205047180F0B4718206EC2
:1011080049C047F0D00E472620504718F00B471823
:10111800206EFE0E086EF50E096EAA0E066E440EBF
:10112800076E120049C0ADFF20500F0B476E473ABB
:10113800205047180F0B4718206E49C047F0C90EBA
:10114800472620504718F00B4718206EFE0E086EF1
:10115800F50E096EAA0E066E440E076E1200FE0EFC
:10116800086EF50E096EAA0E066E440E076E120082
:10117800070EAD6E12004950476E486A4850000A83
:10118800D8A4F6D747500D0AD8B4E9D73D0AD8B441
:10119800ACD7010AD8B4A9D7030AD8B4A6D7010A8C
:1011A800D8B4A3D7070AD8B4A0D7010AD8B49DD712
:1011B800030AD8B49AD7010AD8B497D70F0AD8B473
:1011C80094D7010AD8B491D7780AD8B4ABD7030A10
:1011D800D8B4A8D7010AD8B4A5D7070AD8B4A2D7D3
:1011E800010AD8B49FD7030AD8B49CD7C1D736EC24
:1011F8002CF00009D8B412004DEC25F0496E49C016
:101208003FF0406AA2EC20F03F50496E46D049C0FA
:10121800ADFF04500F0B476E473A045047180F0BA9
:101228004718046E49C047F0D00E472604504718A7
:10123800F00B4718046EFE0E086EF50E096EAA0E26
:10124800066E440E076E120049C0ADFF04500F0B26
:10125800476E473A045047180F0B4718046E49C0A9
:1012680047F0C90E472604504718F00B4718046E7C
:10127800FE0E086EF50E096EAA0E066E440E076E77
:101288001200FE0E086EF50E096EAA0E066E440ECA
:10129800076E1200070EAD6E12004950476E486A7D
:1012A8004850000AD8A4F6D747500D0AD8B4E9D751
:1012B8003D0AD8B4ACD7010AD8B4A9D7030AD8B420
:1012C800A6D7010AD8B4A3D7070AD8B4A0D7010A69
:1012D800D8B49DD7030AD8B49AD7010AD8B497D7F7
:1012E8000F0AD8B494D7010AD8B491D7780AD8B4D9
:1012F800ABD7030AD8B4A8D7010AD8B4A5D7070A28
:10130800D8B4A2D7010AD8B49FD7030AD8B49CD7B7
:10131800C1D736EC2CF00009D8B412004DEC25F0FA
:10132800496E49C03FF0406AA2EC20F03F50496E38
:1013380046D049C0ADFF21500F0B476E473A2150A8
:1013480047180F0B4718216E49C047F0D00E4726A3
:1013580021504718F00B4718216EFE0E086EF50E47
:10136800096E280E066E4C0E076E120049C0ADFFBE
:1013780021500F0B476E473A215047180F0B47185B
:10138800216E49C047F0C90E472621504718F00B77
:101398004718216EFE0E086EF50E096E280E066EB1
:1013A8004C0E076E1200FE0E086EF50E096E280E22
:1013B800066E4C0E076E1200070EAD6E12004950F5
:1013C800476E486A4850000AD8A4F6D747500D0A15
:1013D800D8B4E9D73D0AD8B4ACD7010AD8B4A9D74C
:1013E800030AD8B4A6D7010AD8B4A3D7070AD8B431
:1013F800A0D7010AD8B49DD7030AD8B49AD7010A4E
:10140800D8B497D70F0AD8B494D7010AD8B491D7CB
:10141800780AD8B4ABD7030AD8B4A8D7010AD8B485
:10142800A5D7070AD8B4A2D7010AD8B49FD7030A08
:10143800D8B49CD7C1D736EC2CF00009D8B4120028
:101448004DEC25F0496E49C03FF0406AA2EC20F00F
:101458003F50496E46D049C0ADFF22500F0B476E32
:10146800473A225047180F0B4718226E49C047F0D9
:10147800D00E472622504718F00B4718226E010E4F
:10148800086EF60E096E2A0E066E430E076E1200DF
:1014980049C0ADFF22500F0B476E473A22504718FC
:1014A8000F0B4718226E49C047F0C90E4726225035
:1014B8004718F00B4718226E010E086EF60E096EDB
:1014C8002A0E066E430E076E1200010E086EF60E07
:1014D800096E2A0E066E430E076E1200070EAD6ED9
:1014E80012004950476E486A4850000AD8A4F6D7F7
:1014F80047500D0AD8B4E9D73D0AD8B4ACD7010A89
:10150800D8B4A9D7030AD8B4A6D7010AD8B4A3D7A0
:10151800070AD8B4A0D7010AD8B49DD7030AD8B40B
:101528009AD7010AD8B497D70F0AD8B494D7010A22
:10153800D8B491D7780AD8B4ABD7030AD8B4A8D707
:10154800010AD8B4A5D7070AD8B4A2D7010AD8B4D3
:101558009FD7030AD8B49CD7C1D736EC2CF0000922
:10156800D8B412004DEC25F0496E49C03FF0406AEE
:10157800A2EC20F03F50496E46D049C0ADFF235041
:101588000F0B476E473A235047180F0B4718236E27
:1015980049C047F0D00E472623504718F00B47188C
:1015A800236EE40E086EF50E096E6A0E066E430E83
:1015B800076E120049C0ADFF23500F0B476E473A24
:1015C800235047180F0B4718236E49C047F0C90E20
:1015D800472623504718F00B4718236EE40E086E71
:1015E800F50E096E6A0E066E430E076E1200E40EC3
:1015F800086EF50E096E6A0E066E430E076E12002F
:10160800070EAD6E12004950476E486A4850000AEE
:10161800D8A4F6D747500D0AD8B4E9D73D0AD8B4AC
:10162800ACD7010AD8B4A9D7030AD8B4A6D7010AF7
:10163800D8B4A3D7070AD8B4A0D7010AD8B49DD77D
:10164800030AD8B49AD7010AD8B497D70F0AD8B4DE
:1016580094D7010AD8B491D7780AD8B4ABD7030A7B
:10166800D8B4A8D7010AD8B4A5D7070AD8B4A2D73E
:10167800010AD8B49FD7030AD8B49CD7C1D736EC8F
:101688002CF00009D8B412004DEC25F0496E49C081
:101698003FF0406AA2EC20F03F50496E46D049C066
:1016A800ADFF23500F0B476E473A235047180F0BD7
:1016B8004718236E49C047F0D00E472623504718D5
:1016C800F00B4718236EDF0E086EF50E096E600EDC
:1016D800066E4C0E076E120049C0ADFF23500F0B6B
:1016E800476E473A235047180F0B4718236E49C0D7
:1016F80047F0C90E472623504718F00B4718236EAA
:10170800DF0E086EF50E096E600E066E4C0E076E43
:101718001200DF0E086EF50E096E600E066E4C0E96
:10172800076E1200070EAD6E12004950476E486AE8
:101738004850000AD8A4F6D747500D0AD8B4E9D7BC
:101748003D0AD8B4ACD7010AD8B4A9D7030AD8B48B
:10175800A6D7010AD8B4A3D7070AD8B4A0D7010AD4
:10176800D8B49DD7030AD8B49AD7010AD8B497D762
:101778000F0AD8B494D7010AD8B491D7780AD8B444
:10178800ABD7030AD8B4A8D7010AD8B4A5D7070A93
:10179800D8B4A2D7010AD8B49FD7030AD8B49CD723
:1017A800C1D736EC2CF00009D8B412004DEC25F066
:1017B800496E49C03FF0406AA2EC20F03F50496EA4
:1017C8003AD049C0ADFF23500F0B476E473A23501C
:1017D80047180F0B4718236E49C047F0D00E47260D
:1017E80023504718F00B4718236E940E066E380ED8
:1017F800076E120049C0ADFF23500F0B476E473AE2
:10180800235047180F0B4718236E49C047F0C90EDD
:10181800472623504718F00B4718236E940E066E80
:10182800380E076E1200940E066E380E076E120000
:10183800070EAD6E12004950476E486A4850000ABC
:10184800D8A4F6D747500D0AD8B4EDD73D0AD8B476
:10185800B8D7010AD8B4B5D7030AD8B4B2D7010AA1
:10186800D8B4AFD7070AD8B4ACD7010AD8B4A9D727
:10187800030AD8B4A6D7010AD8B4A3D70F0AD8B494
:10188800A0D7010AD8B49DD7780AD8B4B3D7030A29
:10189800D8B4B0D7010AD8B4ADD7070AD8B4AAD7F4
:1018A800010AD8B4A7D7030AD8B4A4D7C1D736EC4D
:1018B8002CF00009D8B412004DEC25F0476E47C053
:1018C8003FF0406AA2EC20F03F50476E31D047C04D
:1018D800ADFF000E2324D96EDA6A010EDA224750D2
:1018E800D00FDF6E180E066E0C0E076E120047C082
:1018F800ADFF000E2324D96EDA6A010EDA224750B2
:10190800C90FEFD7232ADF0E086EF50E096E600E99
:10191800066E4C0E076E1200FE0E086EF50E096E6E
:10192800AA0E066E440E076E1200070EAD6E120068
:1019380047C03FF0406AA2EC20F04050000AD8A40B
:10194800F4D73F500D0AD8B4E7D7160AD8B4E4D76D
:101958003B0AD8B4D7D7100AD8B4B9D7010AD8B433
:10196800B6D7030AD8B4B3D7010AD8B4B0D7070A90
:10197800D8B4ADD7010AD8B4AAD7030AD8B4A7D720
:10198800010AD8B4A4D70F0AD8B4A1D7010AD8B489
:101998009ED7780AD8B4ABD7030AD8B4A8D7010A17
:1019A800D8B4A5D7070AD8B4A2D7010AD8B49FD704
:1019B800030AD8B49CD7B9D7040204020000000077
:1019C800000000000000000000000000000000000F
:1019D80000000000000000000000000000000000FF
:1019E80000000000000000000000000000000000EF
:1019F80000000000000000000000000000000000DF
:101A080000000000000000000000000000000000CE
:101A180000000000000000000000000000000000BE
:101A280000000000000000000000000000000000AE
:101A3800000000000000000000000000000000009E
:101A4800000000000000000000000000000000008E
:101A5800000000000000000000000000000000007E
:101A6800000000000000000000000000000000006E
:101A7800000000000000000000000000000000005E
:101A8800000000000000000000000000000000004E
:101A9800000000000000000000000000000000003E
:101AA800000000000000000000000000000000002E
:101AB8000000000000000000000000003C6E12D092
:101AC8003CC039F0D00E03D03CC039F0C90E3926DD
:101AD80026503918F00B3918266E3DD0F00E261610
:101AE800898039D03C50396E3A6A3A50000AD8A4F5
:101AF800F5D73950300AD8B4E3D7010AD8B4E0D7BB
:101B0800030AD8B4DDD7010AD8B4DAD7070AD8B49B
:101B1800D7D7010AD8B4D4D7030AD8B4D1D7010A81
:101B2800D8B4CED70F0AD8B4CBD7010AD8B4C8D7FF
:101B3800780AD8B4C9D7030AD8B4C6D7010AD8B422
:101B4800C3D7070AD8B4C0D7010AD8B4BDD7030A87
:101B5800D8B4BAD7C3D734501FE1FC0E335CD8B021
:101B68001BD03338E842070B396E800E3A6EFF0EF1
:101B78003B6E392A03D0D8903B323A32392EFBD704
:101B88003A508C6E000E3324D96E010E3420DA6E72
:101B980026C0DFFF334A342A26502526010E285E48
:101BA800D8B405D0A80E0C6E2B0E0D6E1200020EC6
:101BB8000C6E2B0E0D6E12003B6E12D03BC039F02E
:101BC800D00E03D03BC039F0C90E3926275039183A
:101BD800F00B3918276E3DD0F00E2716898039D0C2
:101BE8003B50396E3A6A3A50000AD8A4F5D73950B2
:101BF800300AD8B4E3D7010AD8B4E0D7030AD8B476
:101C0800DDD7010AD8B4DAD7070AD8B4D7D7010A7A
:101C1800D8B4D4D7030AD8B4D1D7010AD8B4CED708
:101C28000F0AD8B4CBD7010AD8B4C8D7780AD8B421
:101C3800C9D7030AD8B4C6D7010AD8B4C3D7070A84
:101C4800D8B4C0D7010AD8B4BDD7030AD8B4BAD714
:101C5800C3D7275025261CD02850D8B405D0A80EA5
:101C68000C6E2B0E0D6E1200020E0C6E2B0E0D6EEE
:101C78001200010E296E2850D8B4F6D75C0E0C6EEF
:101C88002A0E0D6E120089842850D8A4F7D7ECD7F5
:101C98002750396E3A6A3A50000AD8A4F4D7395016
:101CA800000AD8B4D9D7010AD8B4E3D7ECD7406E24
:101CB800A69CA68E000E446E000E436E40503C6EED
:101CC8003B6A000E3D6EF80E3E6E000E3F6E3B50B6
:101CD8003D24F66E3C503E20F76E000E3F20F86E15
:101CE8004404D8B012003A50D8A41BD043C03BF0EB
:101CF80044C03CF0050E3D6ED8903C323B323D2E40
:101D0800FBD7800E3E6EFF0E3F6E3B2A03D0D89065
:101D18003F323E323B2EFBD73E508C6E010EFEEC1E
:101D28002CF0F6CF3BF03F0E3B16D8A40AD0F29E1B
:101D3800A684A688550EA76EAA0EA76EA682A6949C
:101D4800F28E445010E1FC0E435CD8B00CD0000E6B
:101D58004324D96E010E4420DA6EDF503B6E3B50AF
:101D6800416E426A04D0000E426E000E416E41C0C0
:101D7800F5FF0C00F6503F0B3F0AD8A409D0F29E9D
:101D8800A684550EA76EAA0EA76EA682A694F28EFA
:101D9800434A442A010EF626000EF722000EF822C6
:101DA8009FD736EC2CF00009D8B412004DEC25F082
:101DB800496E49C03FF0406AA2EC20F03F50496E9E
:101DC80025D049C0ADFF4950D00F236EAA0E066E2C
:101DD800170E076E120049C0ADFF4950C90F236E98
:101DE800AA0E066E170E076E1200940E066E380EB7
:101DF800076E1200FE0E086EF50E096EAA0E066E2C
:101E0800440E076E1200070EAD6E12004950476E61
:101E1800486A4850000AD8A4F6D747500D0AD8B4E3
:101E2800E4D7160AD8B4E6D72B0AD8B4CAD7010A19
:101E3800D8B4C7D7030AD8B4C4D7010AD8B4C1D70D
:101E4800070AD8B4BED7010AD8B4BBD7030AD8B496
:101E5800B8D7010AD8B4B5D70F0AD8B4B2D7010A8F
:101E6800D8B4AFD7780AD8B4B6D7030AD8B4B3D79A
:101E7800010AD8B4B0D7070AD8B4ADD7010AD8B484
:101E8800AAD7030AD8B4A7D7BED736EC2CF00009D6
:101E9800D8B412004DEC25F0496E49C03FF0406AB5
:101EA800A2EC20F03F50496E20D049C0ADFF495008
:101EB800D00F036EAE0E066E0F0E076E120049C0ED
:101EC800ADFF4950C90F036EAE0E066E0F0E076EBA
:101ED8001200FE0E086EF50E096EAA0E066E440E6E
:101EE800076E1200070EAD6E12004950476E486A21
:101EF8004850000AD8A4F6D747500D0AD8B4E9D7F5
:101F0800160AD8B4E6D72B0AD8B4CFD7010AD8B462
:101F1800CCD7030AD8B4C9D7010AD8B4C6D7070A98
:101F2800D8B4C3D7010AD8B4C0D7030AD8B4BDD728
:101F3800010AD8B4BAD70F0AD8B4B7D7010AD8B4A7
:101F4800B4D7780AD8B4BBD7030AD8B4B8D7010A2B
:101F5800D8B4B5D7070AD8B4B2D7010AD8B4AFD71E
:101F6800030AD8B4ACD7BED736EC2CF00009D8B4E5
:101F780012004DEC25F0496E49C03FF0406AA2ECD2
:101F880020F03F50496E20D049C0ADFF4950D00FD6
:101F9800206ED20E066E100E076E120049C0ADFFFD
:101FA8004950C90F206ED20E066E100E076E120031
:101FB800FE0E086EF50E096EAA0E066E440E076E2A
:101FC8001200070EAD6E12004950476E486A48501D
:101FD800000AD8A4F6D747500D0AD8B4E9D7160A8C
:101FE800D8B4E6D72B0AD8B4CFD7010AD8B4CCD7FF
:101FF800030AD8B4C9D7010AD8B4C6D7070AD8B4CF
:10200800C3D7010AD8B4C0D7030AD8B4BDD7010AC8
:10201800D8B4BAD70F0AD8B4B7D7010AD8B4B4D746
:10202800780AD8B4BBD7030AD8B4B8D7010AD8B449
:10203800B5D7070AD8B4B2D7010AD8B4AFD7030ABC
:10204800D8B4ACD7BED736EC2CF00009D8B41200FF
:102058004DEC25F0496E49C03FF0406AA2EC20F0F3
:102068003F50496E20D049C0ADFF4950D00F046E93
:10207800F60E066E110E076E120049C0ADFF4950EC
:10208800C90F046EF60E066E110E076E1200FE0ED4
:10209800086EF50E096EAA0E066E440E076E120043
:1020A800070EAD6E12004950476E486A4850000A44
:1020B800D8A4F6D747500D0AD8B4E9D7160AD8B429
:1020C800E6D72B0AD8B4CFD7010AD8B4CCD7030A9D
:1020D800D8B4C9D7010AD8B4C6D7070AD8B4C3D761
:1020E800010AD8B4C0D7030AD8B4BDD7010AD8B4F6
:1020F800BAD70F0AD8B4B7D7010AD8B4B4D7780A70
:10210800D8B4BBD7030AD8B4B8D7010AD8B4B5D75E
:10211800070AD8B4B2D7010AD8B4AFD7030AD8B4DB
:10212800ACD7BED736EC2CF00009D8B412004DEC71
:1021380025F0496E49C03FF0406AA2EC20F03F50BC
:10214800496E20D049C0ADFF4950D00F216E1A0EFC
:10215800066E130E076E120049C0ADFF4950C90F35
:10216800216E1A0E066E130E076E1200FE0E086E12
:10217800F50E096EAA0E066E440E076E1200070EC3
:10218800AD6E12004950476E486A4850000AD8A4FC
:10219800F6D747500D0AD8B4E9D7160AD8B4E6D707
:1021A8002B0AD8B4CFD7010AD8B4CCD7030AD8B4ED
:1021B800C9D7010AD8B4C6D7070AD8B4C3D7010A01
:1021C800D8B4C0D7030AD8B4BDD7010AD8B4BAD78F
:1021D8000F0AD8B4B7D7010AD8B4B4D7780AD8B494
:1021E800BBD7030AD8B4B8D7010AD8B4B5D7070AF9
:1021F800D8B4B2D7010AD8B4AFD7030AD8B4ACD789
:10220800BED736EC2CF00009D8B412004DEC25F0FE
:10221800496E49C03FF0406AA2EC20F03F50496E39
:1022280020D049C0ADFF4950D00F226E3E0E066E39
:10223800140E076E120049C0ADFF4950C90F226E37
:102248003E0E066E140E076E1200FE0E086EF50E98
:10225800096EAA0E066E440E076E1200070EAD6ECA
:1022680012004950476E486A4850000AD8A4F6D769
:1022780047500D0AD8B4E9D7160AD8B4E6D72B0ABE
:10228800D8B4CFD7010AD8B4CCD7030AD8B4C9D7A1
:10229800010AD8B4C6D7070AD8B4C3D7010AD8B434
:1022A800C0D7030AD8B4BDD7010AD8B4BAD70F0A21
:1022B800D8B4B7D7010AD8B4B4D7780AD8B4BBD73A
:1022C800030AD8B4B8D7010AD8B4B5D7070AD8B41E
:1022D800B2D7010AD8B4AFD7030AD8B4ACD7BED79F
:1022E80036EC2CF00009D8B412004DEC25F0496EFC
:1022F80049C03FF0406AA2EC20F03F50496E20D020
:1023080049C0ADFF4950D00F236E620E066E150E00
:10231800076E120049C0ADFF4950C90F236E620E07
:10232800066E150E076E1200FE0E086EF50E096E8B
:10233800AA0E066E440E076E1200070EAD6E12004E
:102348004950476E486A4850000AD8A4F6D7475003
:102358000D0AD8B4E9D7160AD8B4E6D72B0AD8B4E8
:10236800CFD7010AD8B4CCD7030AD8B4C9D7010A41
:10237800D8B4C6D7070AD8B4C3D7010AD8B4C0D7C7
:10238800030AD8B4BDD7010AD8B4BAD70F0AD8B44B
:10239800B7D7010AD8B4B4D7780AD8B4BBD7030AD8
:1023A800D8B4B8D7010AD8B4B5D7070AD8B4B2D7C1
:1023B800010AD8B4AFD7030AD8B4ACD7BED736EC25
:1023C8002CF00009D8B412004DEC25F0496E49C034
:1023D8003FF0406AA2EC20F03F50496E20D049C03F
:1023E800ADFF4950D00F236E860E066E160E076E8F
:1023F800120049C0ADFF4950C90F236E860E066E04
:10240800160E076E1200FE0E086EF50E096EAA0E65
:10241800066E440E076E1200070EAD6E120049508C
:10242800476E486A4850000AD8A4F6D747500D0AA4
:10243800D8B4E9D7160AD8B4E6D72B0AD8B4CFD778
:10244800010AD8B4CCD7030AD8B4C9D7010AD8B47A
:10245800C6D7070AD8B4C3D7010AD8B4C0D7030A65
:10246800D8B4BDD7010AD8B4BAD70F0AD8B4B7D7E9
:10247800010AD8B4B4D7780AD8B4BBD7030AD8B4F9
:10248800B8D7010AD8B4B5D7070AD8B4B2D7010A61
:10249800D8B4AFD7030AD8B4ACD7BED7000E03243C
:1024A800D96EDA6A010EDA22DF50316E032A000E85
:1024B8000324D96EDA6A010EDA22DF50306E032A5D
:1024C800000E3024D96EDA6A010EDA22DF50D8A461
:1024D80002D08B921200000E3124D96EDA6A010EF6
:1024E800DA22DF50486E4850406E416A000E3024B0
:1024F800D96EDA6A010EDA22DF50496E4950426E0F
:10250800436A7DEC20F040C04AF041C04BF042C025
:102518004CF043C04DF0000E3124D96EDA6A010E3A
:10252800DA224AC0DFFF4CC004F00450D8A403D01C
:10253800486A482A01D0486A48460101FC514818AF
:10254800FD0B4818FC6F000E3124D96EDA6A010EB3
:10255800DA22DF50D8A403D0486A482A01D0486A52
:102568000101FC514818FE0B4818FC6F12003B6E25
:1025780012D03BC039F0D00E03D03BC039F0C90EA1
:10258800392626503918F00B3918266E3DD0F00E32
:102598002616898039D03B50396E3A6A3A50000A7B
:1025A800D8A4F5D73950300AD8B4E3D7010AD8B43B
:1025B800E0D7030AD8B4DDD7010AD8B4DAD7070AB6
:1025C800D8B4D7D7010AD8B4D4D7030AD8B4D1D746
:1025D800010AD8B4CED70F0AD8B4CBD7010AD8B4D9
:1025E800C8D7780AD8B4C9D7030AD8B4C6D7010A55
:1025F800D8B4C3D7070AD8B4C0D7010AD8B4BDD74E
:10260800030AD8B4BAD7C3D7265025262550D8A44C
:1026180089822950D8A405D0300E0C6E570E0D6E45
:10262800120033C018F034C019F08B92F40E0C6EFF
:102638005B0E0D6E12003B6E12D03BC039F0D00E0F
:1026480003D03BC039F0C90E392626503918F00B93
:102658003918266E3DD0F00E2616898039D03B50A9
:10266800396E3A6A3A50000AD8A4F5D73950300A78
:10267800D8B4E3D7010AD8B4E0D7030AD8B4DDD771
:10268800010AD8B4DAD7070AD8B4D7D7010AD8B418
:10269800D4D7030AD8B4D1D7010AD8B4CED70F0AF1
:1026A800D8B4CBD7010AD8B4C8D7780AD8B4C9D710
:1026B800030AD8B4C6D7010AD8B4C3D7070AD8B40E
:1026C800C0D7010AD8B4BDD7030AD8B4BAD7C3D77C
:1026D80026502526010E285ED8B405D05C0E0C6E57
:1026E8002A0E0D6E1200020E0C6E2B0E0D6E1200CD
:1026F800000E0324D96EDA6A010EDA22DF50316E39
:10270800032A000E0324D96EDA6A010EDA22DF509A
:10271800306E032A000E3124D96EDA6A010EDA22ED
:10272800DF503F6E3F501A6E1B6A1AC039F01BC04B
:102738003AF0000E3024D96EDA6A010EDA22DF5040
:102748003F6E3F503B6E3C6A23EC2CF039C01AF0C8
:102758003AC01BF0000E3124D96EDA6A010EDA2273
:102768001AC0DFFF1B50D8B403D03F6A3F2A01D0FC
:102778003F6A3F460101FC513F18FD0B3F18FC6FB3
:10278800000E3124D96EDA6A010EDA22DF50D8A49D
:1027980003D03F6A3F2A01D03F6A0101FC513F182C
:1027A800FE0B3F18FC6F1200406EA69CA68E000E12
:1027B800446E000E436E40503C6E3B6A000E3D6E08
:1027C800F80E3E6E000E3F6E3B503D24F66E3C50B8
:1027D8003E20F76E000E3F20F86E4404D8B0120079
:1027E8003A50D8A41BD043C03BF044C03CF0050E7F
:1027F8003D6ED8903C323B323D2EFBD7800E3E6E6C
:10280800FF0E3F6E3B2A03D0D8903F323E323B2E1C
:10281800FBD73E508C6E010EFEEC2CF008004450A5
:1028280008E1FC0E435CD8B004D0F5CF41F0426A11
:1028380004D0000E426E000E416E000E4324D96E85
:10284800010E4420DA6E41C0DFFF434A442A010EDC
:10285800F626000EF722000EF822BFD73B6E12D0E4
:102868003BC039F0D00E03D03BC039F0C90E392631
:1028780033503918F00B3918336E3DD0F00E33163B
:10288800898039D03B50396E3A6A3A50000AD8A448
:10289800F5D73950300AD8B4E3D7010AD8B4E0D70D
:1028A800030AD8B4DDD7010AD8B4DAD7070AD8B4EE
:1028B800D7D7010AD8B4D4D7030AD8B4D1D7010AD4
:1028C800D8B4CED70F0AD8B4CBD7010AD8B4C8D752
:1028D800780AD8B4C9D7030AD8B4C6D7010AD8B475
:1028E800C3D7070AD8B4C0D7010AD8B4BDD7030ADA
:1028F800D8B4BAD7C3D7335025264E0E0C6E2C0E3B
:102908000D6E12003B6E12D03BC039F0D00E03D0D2
:102918003BC039F0C90E392634503918F00B391834
:10292800346E3DD0F00E3416898039D03B50396E64
:102938003A6A3A50000AD8A4F5D73950300AD8B4C0
:10294800E3D7010AD8B4E0D7030AD8B4DDD7010A1F
:10295800D8B4DAD7070AD8B4D7D7010AD8B4D4D7A5
:10296800030AD8B4D1D7010AD8B4CED70F0AD8B43D
:10297800CBD7010AD8B4C8D7780AD8B4C9D7030ABC
:10298800D8B4C6D7010AD8B4C3D7070AD8B4C0D7B1
:10299800010AD8B4BDD7030AD8B4BAD7C3D73450BC
:1029A8002526F40E0C6E2C0E0D6E12003B6E12D006
:1029B8003BC039F0D00E03D03BC039F0C90E3926E0
:1029C80028503918F00B3918286E3DD0F00E28160B
:1029D800898039D03B50396E3A6A3A50000AD8A4F7
:1029E800F5D73950300AD8B4E3D7010AD8B4E0D7BC
:1029F800030AD8B4DDD7010AD8B4DAD7070AD8B49D
:102A0800D7D7010AD8B4D4D7030AD8B4D1D7010A82
:102A1800D8B4CED70F0AD8B4CBD7010AD8B4C8D700
:102A2800780AD8B4C9D7030AD8B4C6D7010AD8B423
:102A3800C3D7070AD8B4C0D7010AD8B4BDD7030A88
:102A4800D8B4BAD7C3D7285025269A0E0C6E2D0EA7
:102A58000D6E12003B6E13D03BC039F0D00E03D080
:102A68003BC039F0C90E3926393A265039180F0BB0
:102A78003918266E3DD00F0E2616898039D03B5066
:102A8800396E3A6A3A50000AD8A4F5D73950300A54
:102A9800D8B4E2D7010AD8B4DFD7030AD8B4DCD750
:102AA800010AD8B4D9D7070AD8B4D6D7010AD8B4F6
:102AB800D3D7030AD8B4D0D7010AD8B4CDD70F0AD0
:102AC800D8B4CAD7010AD8B4C7D7780AD8B4C8D7EF
:102AD800030AD8B4C5D7010AD8B4C2D7070AD8B4EC
:102AE800BFD7010AD8B4BCD7030AD8B4B9D7C3D75B
:102AF8003E0E0C6E260E0D6E12003B6E13D03BC0C0
:102B080039F0D00E03D03BC039F0C90E3926393A16
:102B1800265039180F0B3918266E3DD00F0E261681
:102B2800898039D03B50396E3A6A3A50000AD8A4A5
:102B3800F5D73950300AD8B4E2D7010AD8B4DFD76C
:102B4800030AD8B4DCD7010AD8B4D9D7070AD8B44D
:102B5800D6D7010AD8B4D3D7030AD8B4D0D7010A34
:102B6800D8B4CDD70F0AD8B4CAD7010AD8B4C7D7B2
:102B7800780AD8B4C8D7030AD8B4C5D7010AD8B4D4
:102B8800C2D7070AD8B4BFD7010AD8B4BCD7030A3A
:102B9800D8B4B9D7C3D7760E0C6E250E0D6E1200B9
:102BA8003B6E13D03BC039F0D00E03D03BC039F098
:102BB800C90E3926393A265039180F0B3918266E9E
:102BC8003DD00F0E2616898039D03B50396E3A6AAF
:102BD8003A50000AD8A4F5D73950300AD8B4E2D709
:102BE800010AD8B4DFD7030AD8B4DCD7010AD8B4AD
:102BF800D9D7070AD8B4D6D7010AD8B4D3D7030A85
:102C0800D8B4D0D7010AD8B4CDD70F0AD8B4CAD708
:102C1800010AD8B4C7D7780AD8B4C8D7030AD8B431
:102C2800C5D7010AD8B4C2D7070AD8B4BFD7010A92
:102C3800D8B4BCD7030AD8B4B9D7C3D7C40E0C6E5E
:102C48001A0E0D6E12003B6E13D03BC039F0D00E39
:102C580003D03BC039F0C90E3926393A2750391804
:102C68000F0B3918276E3DD00F0E2716898039D0E3
:102C78003B50396E3A6A3A50000AD8A4F5D7395011
:102C8800300AD8B4E2D7010AD8B4DFD7030AD8B4D7
:102C9800DCD7010AD8B4D9D7070AD8B4D6D7010ADD
:102CA800D8B4D3D7030AD8B4D0D7010AD8B4CDD76B
:102CB8000F0AD8B4CAD7010AD8B4C7D7780AD8B483
:102CC800C8D7030AD8B4C5D7010AD8B4C2D7070AE7
:102CD800D8B4BFD7010AD8B4BCD7030AD8B4B9D777
:102CE800C3D7C00E0C6E1B0E0D6E12003B6E13D0B8
:102CF8003BC039F0D00E03D03BC039F0C90E39269D
:102D0800393A335039180F0B3918336E3DD00F0E3E
:102D18003316898039D03B50396E3A6A3A50000AE6
:102D2800D8A4F5D73950300AD8B4E2D7010AD8B4B4
:102D3800DFD7030AD8B4DCD7010AD8B4D9D7070A31
:102D4800D8B4D6D7010AD8B4D3D7030AD8B4D0D7C1
:102D5800010AD8B4CDD70F0AD8B4CAD7010AD8B453
:102D6800C7D7780AD8B4C8D7030AD8B4C5D7010AD0
:102D7800D8B4C2D7070AD8B4BFD7010AD8B4BCD7C9
:102D8800030AD8B4B9D7C3D7640E0C6E280E0D6EDB
:102D980012003B6E13D03BC039F0D00E03D03BC0BD
:102DA80039F0C90E3926393A345039180F0B391809
:102DB800346E3DD00F0E3416898039D03B50396EB1
:102DC8003A6A3A50000AD8A4F5D73950300AD8B42C
:102DD800E2D7010AD8B4DFD7030AD8B4DCD7010A8E
:102DE800D8B4D9D7070AD8B4D6D7010AD8B4D3D714
:102DF800030AD8B4D0D7010AD8B4CDD70F0AD8B4AB
:102E0800CAD7010AD8B4C7D7780AD8B4C8D7030A2A
:102E1800D8B4C5D7010AD8B4C2D7070AD8B4BFD71F
:102E2800010AD8B4BCD7030AD8B4B9D7C3D70C0E93
:102E38000C6E290E0D6E12003B6E13D03BC039F09C
:102E4800D00E03D03BC039F0C90E3926393A285084
:102E580039180F0B3918286E3DD00F0E28168980A7
:102E680039D03B50396E3A6A3A50000AD8A4F5D79F
:102E78003950300AD8B4E2D7010AD8B4DFD7030AE8
:102E8800D8B4DCD7010AD8B4D9D7070AD8B4D6D76A
:102E9800010AD8B4D3D7030AD8B4D0D7010AD8B412
:102EA800CDD70F0AD8B4CAD7010AD8B4C7D7780A79
:102EB800D8B4C8D7030AD8B4C5D7010AD8B4C2D77A
:102EC800070AD8B4BFD7010AD8B4BCD7030AD8B404
:102ED800B9D7C3D7B40E0C6E290E0D6E120036EC9E
:102EE8002CF00009D8B412004DEC25F0476E20D024
:102EF80047C0ADFF010E3A6E4750D00FD8EC13F023
:102F0800E9EC2BF02068FE0E086EF50E096EAA0E8D
:102F1800066E440E076E1200FE0E086EF50E096E60
:102F2800AA0E066E440E076E1200070EAD6E120052
:102F38004750456E466A4650000AD8A4F6D7455011
:102F48000D0AD8B4E9D7160AD8B4E6D72B0AD8B4EC
:102F5800CFD7010AD8B4CCD7030AD8B4C9D7010A45
:102F6800D8B4C6D7070AD8B4C3D7010AD8B4C0D7CB
:102F7800030AD8B4BDD7010AD8B4BAD7D6D7000E39
:102F88000324D96EDA6A010EDA22DF50316E032A81
:102F9800000E0324D96EDA6A010EDA22DF50306E91
:102FA800032A000E3124D96EDA6A010EDA22DF50C4
:102FB800396E3A6A000E3924D96E010E3A20DA6E5B
:102FC800000E3024E16EE26A010EE222E7503B6E09
:102FD8003C6A000E3B24E16E010E3C20E26EDFCF1E
:102FE800E7FF000E3024D96EDA6A010EDA22DF50CC
:102FF800396E3A6A000E3924D96E010E3A20DA6E1B
:10300800DF50D8A403D03B6A3B2A01D03B6A0101B8
:10301800FC513B18FE0B3B18FC6F120036EC2CF0F1
:103028000009D8B412004DEC25F0476E1DD047C0FA
:10303800ADFF010E3A6E4750D00F5BEC0EF0FE0E5E
:10304800086EF50E096EAA0E066E440E076E120083
:10305800FE0E086EF50E096EAA0E066E440E076E79
:103068001200070EAD6E12004750456E466A465074
:10307800000AD8A4F6D745500D0AD8B4E9D7160ADD
:10308800D8B4E6D72B0AD8B4D2D7010AD8B4CFD748
:10309800030AD8B4CCD7010AD8B4C9D7070AD8B418
:1030A800C6D7010AD8B4C3D7030AD8B4C0D7010A0F
:1030B800D8B4BDD7D6D72AD0000E82B6010E046E7A
:1030C8000450D8A403D0396A392A01D0396A0101D9
:1030D800FC513918FE0B3918FC6F1200000E82B82B
:1030E800010E046EEDD78230E832E832030B046E2D
:1030F8000450D8A403D0396A392A01D0396A0101A9
:10310800FC513918FE0B3918FC6F120020EE03F041
:10311800DF50DF2A396E3A6A000E3924D96E010E63
:103128003A20DA6EDF503B6E3C6A3C50000AD8A465
:1031380012003B50010AD8B4BFD7030AD8B4CED77F
:10314800010AD8A41200CFD720EE03F0DF50DF2AFF
:103158004E6E4F6A000E4E24D96E010E4F20DA6E65
:10316800DF50506E5050020D350EF324F66EEF0E00
:10317800F420F76EF86A000EF8220900F5CF51F036
:103188000900F5CF52F001D809D00500FA6E515068
:10319800FD6E5250FE6EFF6AFA5012000150D8A41C
:1031A8000ED00101FCB503D003C055F002D0FEC11A
:1031B80055F0566A55C053F056C054F004D0000E6E
:1031C800546E000E536E53C08CFFFFC189FF000E72
:1031D8001F6E000E1E6E1200ACA21200232A22508F
:1031E8002318D8A438D0000E2324D96EDA6A010E29
:1031F800DA22DF50396E3950030D020EF326000E25
:10320800F422350EF324F66EEC0EF420F76EF86A0D
:10321800000EF8220800F5502324226E242A0C0EF2
:103228002418D8B406D0FC0E236003D0FC0E226408
:1032380009D0FE0E086EF50E096EAA0E066E440E33
:10324800076E1200DF0E086EF50E096ED00E066EC0
:103258004C0E076E1200200EAD6E7E0E066E480EE6
:10326800076E1200000E0324D96EDA6A010EDA2204
:10327800DF50316E032A000E0324D96EDA6A010E7C
:10328800DA22DF50306E032A000E3124D96EDA6A52
:10329800010EDA22000E3024E16EE26A010EE2220B
:1032A800E750396E3A6A000E3924E16E010E3A2071
:1032B800E26EDFCFE7FF000E3024D96EDA6A010E26
:1032C800DA22DF50396E3A6A000E3924D96E010EBF
:1032D8003A20DA6EDF50D8A403D03B6A3B2A01D0EB
:1032E8003B6A0101FC513B18FE0B3B18FC6F1200B6
:1032F8003250D8B412008150FF0A146E158082B083
:103308001590158284B01592158484B2159415868B
:1033180084B41596158884B61598158A82BA159AB4
:10332800158C82B4159C1450161804E11550171802
:10333800D8B407D014C016F015C017F0000E2E6EC2
:103348000FD0210E2E18D8B40BD02E2A210E2E18ED
:10335800D8A406D014C012F015C013F012C0FDF1A5
:1033680001D812000500FA6E5750FD6E5850FE6ED7
:10337800FF6AFA501200700ED312000E7E6E000E15
:103388007F6E000E896E000E926E000E8A6E936834
:10339800F19E7C68400E8B6EA50E946E000E8C6EAE
:1033A800000E956E000E8D6E0F0E966E850ED56E04
:1033B800810ECD6E630ECB6E4D0ECA6E190EAF6EBA
:1033C800AB8EAC8AAB889D8AF28CF28E97EC1FF09C
:1033D800000E326E9EA203D09E92010E326E7CECDD
:1033E80019F001D8F5D70500FA6E5950FD6E5A50FC
:1033F800FE6EFF6AFA501200ACA2120003C023F05E
:10340800000E2324D96EDA6A010EDA22DF50396EF3
:103418003950030D020EF326000EF422350EF32464
:10342800F66EEC0EF420F76EF86A000EF82208002B
:10343800F5502324226EFC0E236003D0FC0E226478
:1034480009D0FE0E086EF50E096EAA0E066E440E21
:10345800076E1200BC0E086EF70E096E08C0F6FF64
:1034680009C0F7FFF86A0800F5CFADFF084A092A36
:10347800020E066E350E076E1200000E0324D96E7A
:10348800DA6A010EDA22DF50316E032A000E0324B5
:10349800D96EDA6A010EDA22DF50306E032A000E86
:1034A8003024D96EDA6A010EDA22DF50396E3A6AB0
:1034B800000E3924D96E010E3A20DA6E31C0DFFFD2
:1034C800000E3024D96EDA6A010EDA22DF50396E26
:1034D8003A6A000E3924D96E010E3A20DA6EDF50AE
:1034E800D8A403D03B6A3B2A01D03B6A0101FC51B6
:1034F8003B18FE0B3B18FC6F120008C0F6FF09C012
:10350800F7FFF86A0800F5500009D8A428D0000E83
:103518000324D96EDA6A010EDA22DF50396E395087
:10352800030D350EF324F66EEC0EF420F76EF86AF0
:10353800000EF8220900F5CF08F00A00F5CF09F0CF
:1035480008C0F6FF09C0F7FFF86A0800F5CFADFF1D
:10355800084A092A100E066E4B0E076E1200ACA21E
:10356800120008C0F6FF09C0F7FFF86A0800F5CF97
:10357800ADFF084A092A1200C00EF66E190EF76E42
:10358800000EF86E02EE00F011EE04F00900F5CF1F
:10359800EEFFE550E150FAE1E250F8E1E60EF66E92
:1035A8005B0EF76E000EF86E00EE57F010EE04F0AA
:1035B8000900F5CFEEFFE550E150FAE101EE00F029
:1035C80011EE00F0EE6AE550E150FCE1E250FAE15C
:1035D80000EE60F0400EEE6AE806FDE100EE01F054
:1035E800340EEE6AE806FDE15B905B920001BFEFE6
:1035F80019F0000E0324D96EDA6A010EDA22DF50C0
:10360800316E032A000E0324D96EDA6A010EDA221B
:10361800DF50306E032A000E3124D96EDA6A010EAB
:10362800DA22DF50396E3A6A000E3924D96E010E5B
:103638003A20DA6E000E3024E16EE26A010EE222D0
:10364800DFCFE7FF000E3024D96EDA6A010EDA22E6
:10365800DF50D8A403D0396A392A01D0396A010168
:10366800FC513918FE0B3918FC6F12008BB22BD0A5
:10367800560E596E4E0E5A6EE9EC2BF0000EFF6F87
:10368800FFC1FEF1FEC1FDF1FDC1FCF1899E89502B
:10369800D8B409D089CF2AF0000E2B6E640E576E6D
:1036A800420E586E1200195005E1FC0E185CD8A0A5
:1036B80018C003F0000E896E89CF8CFF200E576E5C
:1036C800580E586E120013A012008B92000E896ECD
:1036D80089CF8CFF560E596E4E0E5A6EEFD7000EDC
:1036E8000324D96EDA6A010EDA22DF50316E032A1A
:1036F800000E3124D96EDA6A010EDA22DF50396EF3
:103708003A6A000E3924D96E010E3A20DA6E04C0E6
:10371800DFFF000E3124D96EDA6A010EDA22DF509B
:10372800396E3A6A000E3924D96E010E3A20DA6EE3
:10373800DF50D8A403D03B6A3B2A01D03B6A010181
:10374800FC513B18FE0B3B18FC6F120017D004B05D
:1037580002D0949601D09486120004B002D09498B6
:1037680001D09488120004C039F0394639463946E8
:1037780094503918E70B3918946E120020EE03F0B4
:10378800DF50DF2A396E3A6A000E3924D96E010EED
:103798003A20DA6EDF503B6E3C6A3C50000AD8A4EF
:1037A80012003B50010AD8B4D2D7030AD8B4D5D7EF
:1037B800010AD8A41200D7D717D004B002D08B962C
:1037C80001D08B86120004B002D08B9801D08B8870
:1037D800120004C039F03946394639468B50391839
:1037E800E70B39188B6E120020EE03F0DF50DF2A4A
:1037F800396E3A6A000E3924D96E010E3A20DA6E13
:10380800DF503B6E3C6A3C50000AD8A412003B5083
:10381800010AD8B4D2D7030AD8B4D5D7010AD8A494
:103828001200D7D7000E0324D96EDA6A010EDA2205
:10383800DF50316E032A000E0324D96EDA6A010EB6
:10384800DA22DF50306E032A000E3124D96EDA6A8C
:10385800010EDA22000E3024E16EE26A010EE22245
:10386800DFCFE7FF000E3024D96EDA6A010EDA22C4
:10387800DF50D8A403D0396A392A01D0396A010146
:10388800FC513918FE0B3918FC6F1200000E232466
:10389800D96EDA6A010EDA22DF50396E3950030D1B
:1038A800020EF326000EF422350EF324F66EEC0E0B
:1038B800F420F76EF86A000EF8220800F550232469
:1038C800226EFC0E236003D0FC0E226409D0FE0E8B
:1038D800086EF50E096EAA0E066E440E076E1200EB
:1038E800DF0E086EF50E096ED00E066E4C0E076ED2
:1038F8001200ACA21200000E2324D96EDA6A010E5F
:10390800DA221F0EDF6409D0000E2324D96EDA6A8A
:10391800010EDA227E0EDF6405D0000E3B6E2E0EFD
:103928003A6E0BD0000E2324D96EDA6A010EDA2221
:10393800DF50396E39503A6E3B6A3AC0ADFF232AE0
:1039480023C039F00F0E3916D8A41200A00E066E47
:103958005A0E076E1200000E0324D96EDA6A010EA1
:10396800DA22DF50316E032A000E056E000E312474
:10397800D96EDA6A010EDA22DF50396E3950045EE8
:10398800000E055A0101FCA303D00406D8A00506C1
:1039980005A002D0FC8302D00101FC930450D8A4F6
:1039A80003D0396A392A01D0396A0101FC51391822
:1039B800FE0B3918FC6F1200000E0324D96EDA6A68
:1039C800010EDA22DF50316E032A000E0324D96E6D
:1039D800DA6A010EDA22DF50306E032A000E312433
:1039E800D96EDA6A010EDA22DF501A6E000E302420
:1039F800D96EDA6A010EDA22000E3124E16EE26A2B
:103A0800010EE222DFCFE7FF000E3024D96EDA6A1A
:103A1800010EDA221AC0DFFF1200000E0324D96E4D
:103A2800DA6A010EDA22DF50316E032A000E056EC3
:103A3800000E3124D96EDA6A010EDA22DF50396EAF
:103A480039500426000E05220101FCA302D0044AC5
:103A5800052A05A002D0FC8302D00101FC93045082
:103A6800D8A403D0396A392A01D0396A0101FC5136
:103A78003918FE0B3918FC6F120027500F0B396EDE
:103A88003A6A350E3924F66EF30E3A20F76EF86A64
:103A9800000EF8220800F5CFADFF27502526285044
:103AA800D8B416D03338E842070B396E800E3A6E18
:103AB800FF0E3B6E392A03D0D8903B323A32392E6A
:103AC800FBD73A508C6E600E0A6E460E0B6E1200D3
:103AD800E20E0A6E540E0B6E1200000E0324D96E0D
:103AE800DA6A010EDA22DF50316E032A000E03244F
:103AF800D96EDA6A010EDA22DF50306E032A000E20
:103B08003024D96EDA6A010EDA22DF50396E31C0FC
:103B18003AF0070E3A16010E3B6E3A2A02D0D890B8
:103B28003B363A2EFCD73B5039140009D8B4120062
:103B3800020E03261200000E0324D96EDA6A010E63
:103B4800DA22DF50316E032A000E0324D96EDA6AB6
:103B5800010EDA22DF50306E032A000E3024D96EAF
:103B6800DA6A010EDA22DF50396E31C03AF0070EF8
:103B78003A16010E3B6E3A2A02D0D8903B363A2EBE
:103B8800FCD73B5039140009D8A41200020E0326B2
:103B98001200000E0324D96EDA6A010EDA22DF5011
:103BA800316E032A000E0324D96EDA6A010EDA2276
:103BB800DF50306E032A000E3024D96EDA6A010E07
:103BC800DA2231C0DFFF000E3024D96EDA6A010E26
:103BD800DA22DF50D8A403D0396A392A01D0396AE9
:103BE8000101FC513918FE0B3918FC6F120013A0A3
:103BF80010D08B9203C08CFF000E0324D96EDA6AB2
:103C0800010EDA22DF50896E220E576E5A0E586E58
:103C1800120013A207D0010E011AEE0E576E4E0EB7
:103C2800586E12008BB2120003C08CFF000E0324E2
:103C3800D96EDA6A010EDA22DF50896E540E576E99
:103C48000D0E586E1200000E0324D96EDA6A010EAA
:103C5800DA22DF50316E032A000E0324D96EDA6AA5
:103C6800010EDA22DF50306E032A31C039F0070E18
:103C78003916010E3A6E392A02D0D8903A36392EC2
:103C8800FCD73A50FF0A3B6E000E3024D96EDA6A30
:103C9800010EDA223B50DF161200000E0324D96E03
:103CA800DA6A010EDA22DF50316E032A000E31245F
:103CB800D96EDA6A010EDA22DF501B6ED8901B32F9
:103CC8001A320101FCA302D01B8E01D01B9E1AAE32
:103CD80003D00101FC8302D00101FC93000E3124C2
:103CE800D96EDA6A010EDA221BC0DFFF1200000E5D
:103CF8000324D96EDA6A010EDA22DF50316E032A04
:103D0800000E3124D96EDA6A010EDA22DF501A6EFB
:103D1800D8901A361B360101FCA302D01A8001D0B4
:103D28001A901BA003D00101FC8302D00101FC936F
:103D3800000E3124D96EDA6A010EDA221AC0DFFFCA
:103D48001200000E0324D96EDA6A010EDA22DF505F
:103D5800316E032A000E056E3150045E000E055ABE
:103D68000101FCA303D00406D8A0050605A002D0D3
:103D7800FC8302D00101FC930450D8A403D0396A13
:103D8800392A01D0396A0101FC513918FE0B39185A
:103D9800FC6F1200000E3E6E000E3D6E3B503C1054
:103DA800D8B41CD0010E3F6E04D0D8903B363C36B8
:103DB8003F2A3CAEFAD7D8903D363E363B50395C68
:103DC8003C503A58D8A005D03B50395E3C503A5A3E
:103DD8003D80D8903C323B323F2EEDD73DC039F084
:103DE8003EC03AF01200000E0324D96EDA6A010EC2
:103DF800DA22DF50316E032A000E3124D96EDA6AD6
:103E0800010EDA22DF2A000E3124D96EDA6A010E99
:103E1800DA22DF50D8A403D0396A392A01D0396AA6
:103E28000101FC513918FE0B3918FC6FFCA1120076
:103E3800020E03261200000E0324D96EDA6A010E60
:103E4800DA22DF50316E032A000E3124D96EDA6A85
:103E5800010EDA22DF06000E3124D96EDA6A010E6D
:103E6800DA22DF50D8A403D0396A392A01D0396A56
:103E78000101FC513918FE0B3918FC6FFCA1120026
:103E8800020E03261200000E0324D96EDA6A010E10
:103E9800DA22DF50316E032A000E056E31500426F7
:103EA800000E05220101FCA302D0044A052A05A040
:103EB80002D0FC8302D00101FC930450D8A403D0A3
:103EC800396A392A01D0396A0101FC513918FE0BC7
:103ED8003918FC6F1200000E0324D96EDA6A010E3D
:103EE800DA22DF50316E032A000E3124D96EDA6AE5
:103EF800010EDA22DF50396E3A6A000E3924D96E83
:103F0800010E3A20DA6EDF50046E0450D8A403D0B4
:103F1800396A392A01D0396A0101FC513918FE0B76
:103F28003918FC6F1200550E8C6EAA0E896E000EA1
:103F38003B6E4B0EFEEC2CF08C1E891E8BA202D021
:103F4800010E01D0000EFF0A3A6E3A468B503A181D
:103F5800FD0B3A188B6E3B2A0F0E3B64EAD703C061
:103F68008CFF000E0324D96EDA6A010EDA22DF50C4
:103F7800896E8B921200000E0324D96EDA6A010E44
:103F8800DA22DF50316E032A000E0324D96EDA6A72
:103F9800010EDA22DF50306E032A31C039F0070EE5
:103FA8003916010E3A6E392A02D0D8903A36392E8F
:103FB800FCD7000E3024D96EDA6A010EDA223A50A4
:103FC800DF1A1200000E0324D96EDA6A010EDA2213
:103FD800DF50316E032A000E0324D96EDA6A010E0F
:103FE800DA22DF50306E032A31C039F0070E391655
:103FF800010E3A6E392A02D0D8903A36392EFCD7BB
:10400800000E3024D96EDA6A010EDA223A50DF1235
:1040180012003A0EAD6E000E256EFC0E396E000EC3
:104028003A6E3350395E34503A5A3A5004E1100E21
:10403800395CD8A005D0000E3C6E100E3B6E08D03F
:104048003350FC083B6E3450D8A0E82A00083C6E78
:104058003BC028F0060E0A6E570E0B6E1200ACA27B
:10406800120036EC2CF00009D8B409D0FE0E086E08
:10407800F50E096EAA0E066E440E076E1200235046
:10408800D8A409D0FE0E086EF50E096EAA0E066EAB
:10409800440E076E1200DF0E086EF50E096E400E14
:1040A800066E4D0E076E1200000E0324D96EDA6AF2
:1040B800010EDA22DF50316E032A000E3124D96E48
:1040C800DA6A010EDA2204C0DFFF000E3124D96E4D
:1040D800DA6A010EDA22DF50D8A403D0396A392A05
:1040E80001D0396A0101FC513918FE0B3918FC6FEF
:1040F800120040C039F041C03AF042C03BF043C022
:104108003CF0CEEC1EF039C044F03AC045F040C057
:1041180039F041C03AF042C03BF043C03CF074EC87
:1041280021F039C046F03AC047F044C040F045C0DD
:1041380041F046C042F047C043F012009F0E416E66
:10414800FF0E426E3FC043F040C044F0415043264A
:1041580042504422445006E11A0E435CD8B002D0C3
:10416800010E01D0000E456E466A45504610D8B47F
:1041780005D05F0E3F143F6E406A12003FC03FF00B
:1041880040C040F01200000E0324D96EDA6A010E16
:10419800DA22DF50316E032A000E3124D96EDA6A32
:1041A800010EDA22DF2A000E3124D96EDA6A010EF6
:1041B800DA22DF50D8A403D0396A392A01D0396A03
:1041C8000101FC513918FE0B3918FC6F1200000E62
:1041D8000324D96EDA6A010EDA22DF50316E032A1F
:1041E800000E3124D96EDA6A010EDA22DF06000EDB
:1041F8003124D96EDA6A010EDA22DF50D8A403D04E
:10420800396A392A01D0396A0101FC513918FE0B83
:104218003918FC6F120036EC2CF00009D8B40DD018
:1042280001D80BD00500FA6E0C50FD6E0D50FE6ED5
:10423800FF6AFA504DEC25F012003250D8B4120043
:104248000E4A0F2AF40E0E1808E10F04D8A4120023
:10425800897E000E0F6E000E0E6E12001250D8B43A
:1042680009D0000E896E89CF8CFF200E576E580E2C
:10427800586E12002B2A7D0E2B18D8A412008950D4
:10428800D8A404D02AC039F03A6A04D0000E3A6E95
:10429800000E396E39C089FF000E2B6E120036EC05
:1042A8002CF00009D8A402D08BB20AD08B92140E3D
:1042B800086EF60E096EEA0E066E430E076E1200C1
:1042C8002BEC27F020500318D8A412008B920B0E69
:1042D800086EF60E096EEA0E066E430E076E1200A1
:1042E8003B503C10D8B418D0010E3D6E04D0D89085
:1042F8003B363C363D2A3CAEFAD73B50395C3C5005
:104308003A58D8A004D03B50395E3C503A5AD8901D
:104318003C323B323D2EF1D739C039F03AC03AF041
:10432800120008C0F6FF09C0F7FFF86A0800F55048
:104338000009D8A409D0000E216E7DEC2DF02C0EBA
:10434800066E210E076E1200ACA2120008C0F6FF1E
:1043580009C0F7FFF86A0800F5CFADFF084A092A37
:10436800120008C0F6FF09C0F7FFF86A0800F55008
:104378000009D8A409D0000E226E7DEC2DF00A0E9B
:10438800066E220E076E1200ACA2120008C0F6FFDD
:1043980009C0F7FFF86A0800F5CFADFF084A092AF7
:1043A8001200ACA21200000E2324D96EDA6A010EA4
:1043B800DA22DF50396E3950030D350EF324F66ECC
:1043C800EC0EF420F76EF86A000EF8220900F5CF1B
:1043D80008F00A00F5CF09F0980E066E4C0E076E2D
:1043E800120008C0F6FF09C0F7FFF86A0800F55088
:1043F8000009D8A409D0740E086EF50E096EF00EE7
:10440800066E4B0E076E1200ACA2120008C0F6FF33
:1044180009C0F7FFF86A0800F5CFADFF084A092A76
:10442800120008C0F6FF09C0F7FFF86A0800F55047
:104438000009D8A409D0000E236E7DEC2DF0E80EFB
:10444800066E220E076E1200ACA2120008C0F6FF1C
:1044580009C0F7FFF86A0800F5CFADFF084A092A36
:10446800120008C0F6FF09C0F7FFF86A0800F55007
:104478000009D8A409D0000E236E7DEC2DF0C60EDD
:10448800066E230E076E1200ACA2120008C0F6FFDB
:1044980009C0F7FFF86A0800F5CFADFF084A092AF6
:1044A800120008C0F6FF09C0F7FFF86A0800F550C7
:1044B8000009D8A409D0F80E086EF70E096E5E0E32
:1044C800066E4A0E076E1200ACA2120008C0F6FF74
:1044D80009C0F7FFF86A0800F5CFADFF084A092AB6
:1044E800120026500F0B396E3A6A350E3924F66ED3
:1044F800F30E3A20F76EF86A000EF8220800F5CF9E
:10450800ADFF26502526010E285ED8B405D0600ED2
:104518000A6E460E0B6E1200E20E0A6E540E0B6EF9
:104528001200000E0324D96EDA6A010EDA22DF5077
:10453800316E032A400E0218D8A402D08B921200C2
:104548000250600FD96EDA6A03C0DFFF022A000E3C
:104558003124D96EDA6A010EDA22DF50036E1200B6
:10456800000E0324D96EDA6A010EDA22DF50316EAA
:10457800032A000E3124D96EDA6A010EDA22DF50DE
:1045880004120450D8A403D0396A392A01D0396AF0
:104598000101FC513918FE0B3918FC6F1200000E8E
:1045A8000324D96EDA6A010EDA22DF50316E032A4B
:1045B800000E3124D96EDA6A010EDA22DF500416B1
:1045C8000450D8A403D0396A392A01D0396A0101C4
:1045D800FC513918FE0B3918FC6F1200000E032429
:1045E800D96EDA6A010EDA22DF50316E032A000E24
:1045F8003124D96EDA6A010EDA22DF50046E0450D3
:10460800D8A403D0396A392A01D0396A0101FC518A
:104618003918FE0B3918FC6F1200000E0324D96EEE
:10462800DA6A010EDA22DF50316E032A000E3124D5
:10463800D96EDA6A010EDA22DF50041A0450D8A4BF
:1046480003D0396A392A01D0396A0101FC51391875
:10465800FE0B3918FC6F1200000E3324D96E010EC0
:104668003420DA6EDF50266E334A342A26380F0B90
:10467800396E3A6A350E3924F66EF30E3A20F76E23
:10468800F86A000EF8220800F5CFADFFEA0E0A6EB0
:10469800440E0B6E120008C0F6FF09C0F7FFF86A57
:1046A8000800F5500009D8A407D07DEC2DF0920E33
:1046B800066E1E0E076E1200ACA2120008C0F6FFAE
:1046C80009C0F7FFF86A0800F5CFADFF084A092AC4
:1046D800120008C0F6FF09C0F7FFF86A0800F55095
:1046E8000009D8A407D07DEC2DF0700E066E1F0EC1
:1046F800076E1200ACA2120008C0F6FF09C0F7FF4F
:10470800F86A0800F5CFADFF084A092A120008C068
:10471800F6FF09C0F7FFF86A0800F5500009D8A4A9
:1047280007D07DEC2DF04E0E066E200E076E12009F
:10473800ACA2120008C0F6FF09C0F7FFF86A08002B
:10474800F5CFADFF084A092A1200ACA21200000EEC
:104758002324D96EDA6A010EDA220101DF500F0B29
:10476800396E3A6A350E3924F66EF30E3A20F76E32
:10477800F86A000EF8220800F5CFADFF8C0E066E21
:10478800550E076E1200ACA21200000E2324D96E3B
:10479800DA6A010EDA220101DF380F0B396E3A6A44
:1047A800350E3924F66EF30E3A20F76EF86A000ECD
:1047B800F8220800F5CFADFF520E066E470E076EC1
:1047C8001200ACA21200000E2324D96EDA6A010E80
:1047D800DA220101DF500F0B396E3A6A350E39249F
:1047E800F66EF30E3A20F76EF86A000EF82208000B
:1047F800F5CFADFF6A0E066E5A0E076E1200ACA218
:104808001200000E2324D96EDA6A010EDA220101A1
:10481800DF380F0B396E3A6A350E3924F66EF30E0F
:104828003A20F76EF86A000EF8220800F5CFADFFBF
:10483800CA0E066E470E076E1200ACA21200000EDA
:104848002324D96EDA6A010EDA220101DF500F0B38
:10485800396E3A6A350E3924F66EF30E3A20F76E41
:10486800F86A000EF8220800F5CFADFFE00E066EDC
:10487800310E076E1200ACA21200000E2324D96E6E
:10488800DA6A010EDA220101DF380F0B396E3A6A53
:10489800350E3924F66EF30E3A20F76EF86A000EDC
:1048A800F8220800F5CFADFF420E066E480E076EDF
:1048B8001200ACA21200000E2324D96EDA6A010E8F
:1048C800DA220101DF500F0B396E3A6A350E3924AE
:1048D800F66EF30E3A20F76EF86A000EF82208001A
:1048E800F5CFADFFEC0E066E520E076E1200ACA2AD
:1048F8001200000E2324D96EDA6A010EDA220101B1
:10490800DF380F0B396E3A6A350E3924F66EF30E1E
:104918003A20F76EF86A000EF8220800F5CFADFFCE
:10492800BA0E066E480E076E120008C0F6FF09C0E0
:10493800F7FFF86A0800F5500009D8A407D07DEC05
:104948002DF0240E066E300E076E1200ACA2120077
:1049580008C0F6FF09C0F7FFF86A0800F5CFADFFF9
:10496800084A092A120008C0F6FF09C0F7FFF86ACA
:104978000800F5500009D8A407D0000E2F6EEE0EDF
:10498800066E5B0E076E1200ACA2120008C0F6FF9E
:1049980009C0F7FFF86A0800F5CFADFF084A092AF1
:1049A800120008C0F6FF09C0F7FFF86A0800F550C2
:1049B8000009D8A407D07DEC2DF0E60E066E2E0E69
:1049C800076E1200ACA2120008C0F6FF09C0F7FF7C
:1049D800F86A0800F5CFADFF084A092A120008C096
:1049E800F6FF09C0F7FFF86A0800F5500009D8A4D7
:1049F80007D07DEC2DF0AA0E066E1D0E076E120074
:104A0800ACA2120008C0F6FF09C0F7FFF86A080058
:104A1800F5CFADFF084A092A120008C0F6FF09C001
:104A2800F7FFF86A0800F5500009D8A407D0A8ECE9
:104A380018F0A60E066E420E076E1200ACA2120007
:104A480008C0F6FF09C0F7FFF86A0800F5CFADFF08
:104A5800084A092A120008C0F6FF09C0F7FFF86AD9
:104A68000800F5500009D8A407D07DEC2DF0520EAF
:104A7800066E080E076E1200ACA2120008C0F6FF00
:104A880009C0F7FFF86A0800F5CFADFF084A092A00
:104A98001200F29E02C2D9FF03C2DAFFDF503B6E5A
:104AA80022EE02F0DE2A000EDD2222EE02F0040ED3
:104AB800DE180AE1030EDE18D8A406D0040EE8CFEB
:104AC80002F2020EE8CF03F2F28E3B501200ACA2C3
:104AD8000BD001D809D00500FA6E0A50FD6E0B50B4
:104AE800FE6EFF6AFA5012003250D8B412000E4A15
:104AF8000F2A7D0E0E180F10D8A41200897C000E04
:104B08000F6E000E0E6E120008C0F6FF09C0F7FF08
:104B1800F86A0800F5500009D8A405D08C0E066E76
:104B2800550E076E1200ACA2120008C0F6FF09C0AD
:104B3800F7FFF86A0800F5CFADFF084A092A120006
:104B480008C0F6FF09C0F7FFF86A0800F550000929
:104B5800D8A405D04E0E066E510E076E1200ACA2F8
:104B6800120008C0F6FF09C0F7FFF86A0800F5CF81
:104B7800ADFF084A092A120008C0F6FF09C0F7FF6E
:104B8800F86A0800F5500009D8A405D0AA0E066EE8
:104B9800510E076E1200ACA2120008C0F6FF09C041
:104BA800F7FFF86A0800F5CFADFF084A092A120096
:104BB80008C0F6FF09C0F7FFF86A0800F5500009B9
:104BC800D8A405D07E0E066E4F0E076E1200ACA25A
:104BD800120008C0F6FF09C0F7FFF86A0800F5CF11
:104BE800ADFF084A092A120008C0F6FF09C0F7FFFE
:104BF800F86A0800F5500009D8A405D0060E066E1C
:104C0800520E076E1200ACA2120008C0F6FF09C0CF
:104C1800F7FFF86A0800F5CFADFF084A092A120025
:104C280023C03BF03C6A0AD0000E3B24D96E010E2B
:104C38003C20DA6E21C0DFFF3B4A3C2A2250396E05
:104C48003A6A3B50395C3C503A58D8B0EDD7AA0E76
:104C5800066E440E076E120008C0F6FF09C0F7FF83
:104C6800F86A0800F5500009D8A405D0620E066E4F
:104C7800520E076E1200ACA2120008C0F6FF09C05F
:104C8800F7FFF86A0800F5CFADFF084A092A1200B5
:104C980008C0F6FF09C0F7FFF86A0800F5500009D8
:104CA800D8A405D0E00E066E310E076E1200ACA235
:104CB800120008C0F6FF09C0F7FFF86A0800F5CF30
:104CC800ADFF084A092A120008C0F6FF09C0F7FF1D
:104CD800F86A0800F5500009D8A405D0BE0E066E83
:104CE800520E076E1200ACA2120008C0F6FF09C0EF
:104CF800F7FFF86A0800F5CFADFF084A092A120045
:104D080008C0F6FF09C0F7FFF86A0800F550000967
:104D1800D8A405D03A0E066E500E076E1200ACA24B
:104D2800120008C0F6FF09C0F7FFF86A0800F5CFBF
:104D3800ADFF084A092A120008C0F6FF09C0F7FFAC
:104D4800F86A0800F5500009D8A405D0480E066E88
:104D5800530E076E1200ACA2120008C0F6FF09C07D
:104D6800F7FFF86A0800F5CFADFF084A092A1200D4
:104D780008C0F6FF09C0F7FFF86A0800F5500009F7
:104D8800D8A405D0960E066E500E076E1200ACA27F
:104D9800120008C0F6FF09C0F7FFF86A0800F5CF4F
:104DA800ADFF084A092A120008C0F6FF09C0F7FF3C
:104DB800F86A0800F5500009D8A405D0F20E066E6E
:104DC800500E076E1200ACA2120008C0F6FF09C010
:104DD800F7FFF86A0800F5CFADFF084A092A120064
:104DE800000E0324D96EDA6A010EDA22DF50316E22
:104DF800032A000E3124D96EDA6A010EDA22DF5056
:104E08001A6E000E3124D96EDA6A010EDA2204C055
:104E1800DFFF1AC004F01200000E0324D96EDA6A0C
:104E2800010EDA22DF50396E3950020D350EF324A7
:104E3800F66EF10EF420F76EF86A000EF8220900FB
:104E4800F5CF1CF00A00F5CF1DF0032A12008BB233
:104E580005D0000E1F6E000E1E6E12001C501D1095
:104E6800D8B40CD03250D8B412001E4A1F2A1C5095
:104E78001E1806E11D501F18D8A41200A8EC18F03F
:104E88001200000E0324D96EDA6A010EDA22DF500E
:104E9800316E032A400E0218D8A402D08B92120059
:104EA8000250600FD96EDA6A03C0DFFF022A31C0F0
:104EB80003F0120033500F0B396E3A6A350E39245D
:104EC800F66EF30E3A20F76EF86A000EF822080024
:104ED800F5CFADFF33502526000E276E880E0A6EDB
:104EE800560E0B6E120013B205D0F60E576E3B0E1F
:104EF800586E12008BB2120003C08CFF000E032400
:104F0800D96EDA6A010EDA22DF50896E220E576EE8
:104F18005A0E586E120013B005D0F60E576E3B0E9F
:104F2800586E12008BB2120003C08CFF000E0324CF
:104F3800D96EDA6A010EDA22DF50896E220E576EB8
:104F48005A0E586E1200ACA212000101FC510F0B50
:104F5800396E3A6A350E3924F66EF30E3A20F76E3A
:104F6800F86A000EF8220800F5CFADFF460E066E6F
:104F78005A0E076E1200ACA212000101FC390F0B89
:104F8800396E3A6A350E3924F66EF30E3A20F76E0A
:104F9800F86A000EF8220800F5CFADFF4E0E066E37
:104FA8004F0E076E12009F0E3B6EFF0E3C6E39C00F
:104FB8003DF03AC03EF03B503D263C503E223E502C
:104FC80006E11A0E3D5CD8B002D0010E01D0000EE9
:104FD800396E3A6A120012B005D0540E576E0D0E93
:104FE800586E1200104A112AE80E10180AE1030E32
:104FF8001118D8A41200000E896E220E576E5A0E90
:10500800586E1200ACA2120003500F0B396E3A6AA8
:10501800350E3924F66EF30E3A20F76EF86A000E54
:10502800F8220800F5CFADFF0E0E066E550E076E7E
:105038001200ACA2120003380F0B396E3A6A350E13
:105048003924F66EF30E3A20F76EF86A000EF8224D
:105058000800F5CFADFF0C0E066E500E076E12005D
:10506800ACA2120020500F0B396E3A6A350E392463
:10507800F66EF30E3A20F76EF86A000EF822080072
:10508800F5CFADFF380E066E550E076E1200ACA2B6
:10509800120020380F0B396E3A6A350E3924F66E35
:1050A800F30E3A20F76EF86A000EF8220800F5CFE2
:1050B800ADFF680E066E500E076E1200ACA212000D
:1050C80004500F0B396E3A6A350E3924F66EF30E1A
:1050D8003A20F76EF86A000EF8220800F5CFADFF07
:1050E800620E066E550E076E1200ACA2120004384E
:1050F8000F0B396E3A6A350E3924F66EF30E3A20E4
:10510800F76EF86A000EF8220800F5CFADFFC40E5E
:10511800066E500E076E1200ACA2120002500F0B62
:10512800396E3A6A350E3924F66EF30E3A20F76E68
:10513800F86A000EF8220800F5CFADFF000E066EE3
:10514800340E076E1200ACA2120002380F0B396E33
:105158003A6A350E3924F66EF30E3A20F76EF86A7D
:10516800000EF8220800F5CFADFF200E066E510E96
:10517800076E1200ACA2120004500F0B396E3A6A87
:10518800350E3924F66EF30E3A20F76EF86A000EE3
:10519800F8220800F5CFADFFB60E066E550E076E65
:1051A8001200ACA2120004380F0B396E3A6A350EA1
:1051B8003924F66EF30E3A20F76EF86A000EF822DC
:1051C8000800F5CFADFF7C0E066E510E076E12007B
:1051D800ACA2120003500F0B396E3A6A350E39240F
:1051E800F66EF30E3A20F76EF86A000EF822080001
:1051F800F5CFADFF0A0E066E560E076E1200ACA272
:10520800120003380F0B396E3A6A350E3924F66EE0
:10521800F30E3A20F76EF86A000EF8220800F5CF70
:10522800ADFFD80E066E510E076E1200ACA212002A
:1052380023500F0B396E3A6A350E3924F66EF30E89
:105248003A20F76EF86A000EF8220800F5CFADFF95
:105258007C0E066E5A0E076E1200ACA2120023389E
:105268000F0B396E3A6A350E3924F66EF30E3A2072
:10527800F76EF86A000EF8220800F5CFADFF340E7D
:10528800066E520E076E1200ACA2120023500F0BCE
:10529800396E3A6A350E3924F66EF30E3A20F76EF7
:1052A800F86A000EF8220800F5CFADFF8E0E066EE4
:1052B8005A0E076E1200ACA2120023380F0B396E7B
:1052C8003A6A350E3924F66EF30E3A20F76EF86A0C
:1052D800000EF8220800F5CFADFF900E066E520EB4
:1052E800076E1200ACA21200232A23C039F00F0E59
:1052F8003916D8A409D0100E235E200EAD6EC40E48
:10530800066E5A0E076E1200340E066E560E076EA3
:105318001200ACA2120023500F0B396E3A6A350EF8
:105328003924F66EF30E3A20F76EF86A000EF8226A
:105338000800F5CFADFFD60E066E5A0E076E1200A6
:10534800ACA2120023380F0B396E3A6A350E392495
:10535800F66EF30E3A20F76EF86A000EF82208008F
:10536800F5CFADFF1A0E066E530E076E1200000E33
:105378000324D96EDA6A010EDA22DF50041A032AEE
:105388000450D8A403D0396A392A01D0396A0101F6
:10539800FC513918FE0B3918FC6F1200000E03245B
:1053A800D96EDA6A010EDA22DF500412032A045099
:1053B800D8A403D0396A392A01D0396A0101FC51CD
:1053C8003918FE0B3918FC6F1200000E0324D96E31
:1053D800DA6A010EDA22DF500416032A0450D8A430
:1053E80003D0396A392A01D0396A0101FC513918C8
:1053F800FE0B3918FC6F1200000E0324D96EDA6A0E
:10540800010EDA22DF50046E032A0450D8A403D018
:10541800396A392A01D0396A0101FC513918FE0B61
:105428003918FC6F120034500F0B396E3A6A350E7A
:105438003924F66EF30E3A20F76EF86A000EF82259
:105448000800F5CFADFF34502526B20E0A6E560E71
:105458000B6E120028500F0B396E3A6A350E39243C
:10546800F66EF30E3A20F76EF86A000EF82208007E
:10547800F5CFADFF28502526DC0E0A6E560E0B6EB2
:10548800120012BE05D0540E576E0D0E586E120043
:10549800104A112AE80E101809E1030E1118D8A4B1
:1054A80012008968220E576E5A0E586E1200000EAE
:1054B8000324D96EDA6A010EDA22DF50046E032A59
:1054C8000250D8A402D08B92120002060250600F3C
:1054D800D96EDA6ADF50036E1200256C25380F0B7F
:1054E800396E3A6A350E3924F66EF30E3A20F76EA5
:1054F800F86A000EF8220800F5CFADFF5E0E0A6EBE
:10550800560E0B6E1200ACA21200830E086EF50E3A
:10551800096E08C0F6FF09C0F7FFF86A0800F5CF62
:10552800ADFF084A092A9E0E066E460E076E120047
:10553800ACA21200420E086EF50E096E08C0F6FF06
:1055480009C0F7FFF86A0800F5CFADFF084A092A35
:10555800DA0E066E460E076E1200ACA21200010E9D
:10556800086EF60E096E08C0F6FF09C0F7FFF86A64
:105578000800F5CFADFF084A092A160E066E470E39
:10558800076E1200ACA21200232A22502318D8A4B6
:1055980009D0FE0E086EF50E096EAA0E066E440EB0
:1055A800076E1200340E066E5A0E076E1200ACA279
:1055B8001200EA0E086EF70E096E08C0F6FF09C061
:1055C800F7FFF86A0800F5CFADFF084A092A480E28
:1055D800066E4B0E076E1200ACA21200A00E086EEB
:1055E800F50E096E08C0F6FF09C0F7FFF86A080053
:1055F800F5CFADFF084A092A800E066E4B0E076EDE
:105608001200ACA21200F10E086EF70E096E08C067
:10561800F6FF09C0F7FFF86A0800F5CFADFF084AA2
:10562800092AB80E066E4B0E076E1200ACA21200C5
:1056380023500318D8B404D0000E3A6E200E03D0BD
:10564800000E3A6E2A0E396E39C0ADFFF60E066EA0
:10565800480E076E120025500F0B396E3A6A350E48
:105668003924F66EF30E3A20F76EF86A000EF82227
:105678000800F5CFADFFD20E0A6E5B0E0B6E12005E
:1056880027380F0B396E3A6A350E3924F66EF30E49
:105698003A20F76EF86A000EF8220800F5CFADFF41
:1056A800820E0A6E3A0E0B6E120033380F0B396EEB
:1056B8003A6A350E3924F66EF30E3A20F76EF86A18
:1056C800000EF8220800F5CFADFFBC0E0A6E4E0E94
:1056D8000B6E120034380F0B396E3A6A350E3924C6
:1056E800F66EF30E3A20F76EF86A000EF8220800FC
:1056F800F5CFADFF2E0E0A6E540E0B6E1200283831
:105708000F0B396E3A6A350E3924F66EF30E3A20CD
:10571800F76EF86A000EF8220800F5CFADFF5C0EB0
:105728000A6E540E0B6E12003B6E07D0000E256EEB
:10573800400E0C6E2E0E0D6E12003B50396E3A6AFA
:105748003A50000AD8A4120039503A0AD8A41200D4
:10575800EDD7ACA212000101FCB104D0000E3A6EE4
:105768002E0E03D0000E3A6E5A0E396E39C0ADFFB8
:10577800E00E066E550E076E1200ACA21200010173
:10578800FCB304D0000E3A6E2E0E03D0000E3A6E13
:10579800430E396E39C0ADFF5A0E066E570E076EAE
:1057A8001200ACA212000101FCB504D0000E3A6E42
:1057B8002E0E03D0000E3A6E410E396E39C0ADFF81
:1057C800820E066E570E076E1200000E016E000E56
:1057D800026E000E036E000E0101FC6F000E046ED7
:1057E800000E1D6E000E1C6EE70E8B16E70E94164B
:1057F80012008BB20DD0000E896E89CF8CFF560E29
:10580800596E4E0E5A6E200E576E580E586E120074
:1058180013A012008B92EFD712501310D8A41200C5
:1058280003C08CFF000E0324D96EDA6A010EDA2257
:10583800DF50896E540E576E0D0E586E1200395097
:105848003B02F3CF3DF0F4CF3EF039503C02F35029
:105858003E263A503B02F3503E263DC039F03EC04A
:105868003AF01200F29E22EE00F012EE02F0DE5044
:10587800E61804E1DE50E618D8B402D0010E01D0D3
:10588800000E3D6EF28E3D5012002F50D8B402D05B
:1058980013A01200000E896E89CF8CFF560E596E28
:1058A8004E0E5A6E200E576E580E586E1200000E8D
:1058B8000324D96EDA6A010EDA22DF50316E032A28
:1058C800000E3124D96EDA6A010EDA22DF5003267F
:1058D8001200000E0324D96EDA6A010EDA22DF50B4
:1058E800396E3A6A000E3924D96E010E3A20DA6E02
:1058F800DF50036E12000A0EAD6E345009E1FC0E43
:10590800335CD8B005D01A0E0A6E400E0B6E12002A
:10591800C40E0A6E5B0E0B6E120036EC2CF00009FA
:10592800D8A403D03E6A3E2A01D03E6A0101FC5148
:105938003E18FE0B3E18FC6F1200000E346E000E6F
:10594800336E000E0F6E000E0E6E1A0E0A6E400EAB
:105958000B6E12007DEC2DF0000E296E000E0F6EFE
:10596800000E0E6E300E0C6E570E0D6E12000250A9
:10597800D8A402D08B92120002060250600FD96E92
:10598800DA6ADF50036E120001D812000500FA6EC1
:105998000650FD6E0750FE6EFF6AFA501200ACA268
:1059A8001200200EAD6E7DEC2DF0B60E066E180EB0
:1059B800076E120036EC2CF00009D8B404D04DEC78
:1059C80025F0046E120003061200D6CF04F0D7505B
:1059D800041ACE50041ACF50041ACC50041A1200DC
:1059E8002068540E086EF30E096EAA0E066E440E59
:1059F800076E1200396E03D09E929EA2FED739061A
:105A08003928D8B41200F8D712501310D8A41200AD
:105A1800740E576E360E586E120012501310D8A41A
:105A28001200540E576E0D0E586E1200ACA21200E2
:105A3800200EAD6E8E0E066E470E076E1200ACA2DB
:105A48001200200EAD6EAA0E066E570E076E1200DB
:105A5800ACA212003F0EAD6EA60E066E590E076E72
:105A68001200ACA21200200EAD6E580E066E5A0E31
:105A7800076E1200ACA212003D0EAD6E060E066E49
:105A8800480E076E1200ACA21200200EAD6EAA0ED0
:105A9800066E430E076E1200ACA212007C0EAD6EAD
:105AA800660E066E400E076E1200ACA212007C0E47
:105AB800AD6EFA0E066E380E076E1200ACA212001A
:105AC800200EAD6EB20E066E5A0E076E1200ACA214
:105AD8001200200EAD6E340E066E560E076E1200C2
:105AE800000E0324D96EDA6A010EDA22DF50036E43
:105AF8001200F29E22EE00F0DECF02F2DDCF03F2BA
:105B0800F28E12000A0EAD6E8B92F20E0A6E5B0ECA
:105B18000B6E1200ACA203D004C0ADFF1200030646
:105B280012000D0EAD6E0C0E0A6E5B0E0B6E12009F
:105B3800460EAD6E2A0E0A6E5B0E0B6E1200460EF6
:105B4800AD6E380E0A6E5B0E0B6E1200310EAD6E26
:105B5800460E0A6E5B0E0B6E1200300EAD6E540EC2
:105B68000A6E5B0E0B6E1200300EAD6E620E0A6E80
:105B78005B0E0B6E1200300EAD6E700E0A6E5B0E71
:105B88000B6E1200300EAD6E7E0E0A6E5B0E0B6E43
:105B98001200300EAD6E8C0E0A6E5B0E0B6E12008C
:105BA800300EAD6E9A0E0A6E5B0E0B6E1200300E42
:105BB800AD6EA80E0A6E5B0E0B6E12003A0EAD6E3D
:105BC800B60E0A6E5B0E0B6E12000D0EAD6EFE0E5B
:105BD8000A6E580E0B6E1200000E026E1200225A48
:0E5BE800564E8B921200120012001200120094
:10EC3400007CF60124F601D4F60254F70104F7022D
:10EC440074F7033CF7035CF7022CF70214F7028411
:10EC5400F70344F703FCF6026CF70334F7030CF7ED
:10EC6400027CF70394F602BCF6028CF602B4F602B8
:10EC74001CF6032CF6039CF602C4F60234F6023C9E
:10EC8400F602A4F602CCF6025CF60264F602ACF7D5
:10EC940002B4F702CCF702D4F7026CF60374F6035D
:10ECA40044F60324F7038CF70354F602E4F6024C0B
:10ECB400F602DCF6024CF701ACF6021CF70284F60D
:10ECC40001C4F701C4F701C4F701C4F701C4F70193
:10ECD400C4F701C4F701C4F701C4F701C4F701C4C0
:10ECE400F701C4F701C4F701C4F701C4F701C4F77D
:10ECF40001C4F701C4F701C4F701C4F701C4F70163
:10ED0400C4F701C4F701C4F701C4F701C4F701C48F
:10ED1400F701C4F701C4F701C4F701C4F701C4F74C
:10ED240001C4F701C4F701C4F701C4F701C4F70132
:10ED3400C4F701C4F701C4F701C4F701C4F701C45F
:10ED4400F701C4F701C4F701C4F701C4F701C4F71C
:10ED540001C4F701C4F701C4F701C4F701C4F70102
:10ED6400C4F701C4F701C4F701C4F701C4F701C42F
:10ED7400F701C4F701C4F701C4F701C4F701C4F7EC
:10ED840001C4F701C4F701C4F701C4F701C4F701D2
:10ED9400C4F701C4F701C4F701C4F701C4F701C4FF
:10EDA400F701C4F701C4F701C4F701C4F701C4F7BC
:10EDB40001C4F701C4F701C4F701C4F701C4F701A2
:10EDC400C4F701C4F701C4F701C4F701C4F701C4CF
:10EDD400F701C4F701C4F701C4F701C4F701C4F78C
:10EDE40001C4F701C4F701C4F701C4F701C4F70172
:10EDF400C4F701C4F701C4F701C4F701C4F701C49F
:10EE0400F701C4F701C4F701C4F701C4F701C4F75B
:10EE140001C4F701C4F701C4F701C4F701C4F70141
:10EE2400C4F701C4F701C4F701C4F701C4F701C46E
:10EE3400F701C4F701C4F701C4F701C4F701C4F72B
:10EE440001C4F701C4F701C4F701C4F701C4F70111
:10EE5400C4F701C4F701C4F701C4F701C4F701C43E
:10EE6400F701C4F701C4F701C4F701C4F701C4F7FB
:10EE74000194F701ECF601A4F701C4F7019CF70231
:10EE8400F4F60264F702C4F701C4F701C4F701C43D
:10EE9400F701C4F701C4F701C4F701C4F701C4F7CB
:10EEA40001C4F701C4F701C4F701C4F701C4F701B1
:10EEB400C4F701C4F701C4F701C4F701C4F701C4DE
:10EEC400F701C4F701C4F701C4F701C4F701C4F79B
:10EED40001C4F701C4F701C4F701C4F701C4F70181
:10EEE400C4F701C4F701C4F701C4F701C4F701C4AE
:10EEF400F701C4F701C4F701C4F701C4F701C4F76B
:10EF040001C4F701C4F701C4F701C4F701C4F70150
:10EF1400C4F701C4F701C4F701C4F701C4F701C47D
:10EF2400F701C4F701C4F701C4F701C4F701C4F73A
:10EF340001EA5BF05B204EE05B00549A3B8234B004
:10EF440040E636E4452C386C32DE3EFA35862FE84E
:10EF54004DC0398E3E223A4A3D5E39F826A424D269
:10EF640053A645A453684576532246D6418E413E66
:10EF74003EEE3DF63CA23C4E3CCC3F7E3F3E3BE267
:10EF84003AE85ADA588A4E2A457659B654B658D2CF
:10EF940059EA5BEA5BEA5BEA5BEA5BEA5BEA5BEA47
:10EFA4005BEA5BEA5BEA5BEA5BEA5BEA5BEA5BEA35
:10EFB4005BEA5BEA5BEA5BEA5BEA5BEA5BEA5BEA25
:10EFC4005BEA5BEA5BEA5BEA5BEA5BEA5BEA5BEA15
:10EFD4005BEA5BEA5BEA5BEA5BEA5BEA5BEA5BEA05
:10EFE4005BEA5BEA5BEA5BEA5BEA5BEA5BEA5BEAF5
:10EFF4005BEA5BEA5BEA5BEA5BEA5BEA5BEA5BEAE5
:10F004005BEA5BEA5BEA5BEA5BEA5BEA5BEA5BEAD4
:10F014005BEA5BEA5BEA5BEA5BEA5BEA5BEA5BEAC4
:10F024005BEA5BEA5BEA5BEA5BEA5BEA5BEA5BEAB4
:10F034005BEA5BEA5BEA5BEA5BEA5BEA5BEA5BEAA4
:10F044005BEA5BEA5BEA5BEA5BEA5BEA5BEA5BEA94
:10F054005BEA5BEA5BEA5BEA5BEA5BEA5BEA5BEA84
:10F064005BEA5BEA5BEA5BEA5BEA5BEA5BEA5BEA74
:10F074005BEA5BEA5BEA5BEA5BEA5BEA5BEA5BEA64
:10F084005BEA5BEA5BEA5BEA5BEA5BEA5BEA5BEA54
:10F094005BEA5BEA5BEA5BEA5BEA5BEA5BEA5BEA44
:10F0A4005BEA5BEA5BEA5BEA5BEA5BEA5BEA5BEA34
:10F0B4005B1C5BBC592259EA5BC037BE305437EA4B
:10F0C4005BEA5BEA5BEA5BEA5BEA5BEA5BEA5BEA14
:10F0D4005BEA5BEA5BEA5BEA5BEA5BEA5BEA5BEA04
:10F0E4005BEA5BEA5BEA5BEA5BEA5BEA5BEA5BEAF4
:10F0F4005BEA5BEA5BEA5BEA5BEA5BEA5BEA5BEAE4
:10F104005BEA5BEA5BEA5BEA5BEA5BEA5BEA5BEAD3
:10F114005BEA5BEA5BEA5BEA5BEA5BEA5BEA5BEAC3
:10F124005BEA5BEA5BEA5BEA5BEA5BEA5BEA5BEAB3
:10F134005B00000100020003000300040005000559
:10F1440000060007000800080009000A000B000B75
:10F15400000C000D000E000E000F00100011001135
:10F1640000120013001400150015001600170018F3
:10F1740000190019001A001B001C001D001D001EB0
:10F18400001F00200021002200230023002400256A
:10F1940000260027002800290029002A002B002C23
:10F1A400002D002E002F00300031003200330033D8
